{
  "_format": "hh-sol-artifact-1",
  "contractName": "TokenFarm",
  "sourceName": "contracts/TokenFarm.sol",
  "abi": [
    {
      "inputs": [
        {
          "internalType": "contract DappToken",
          "name": "_dappToken",
          "type": "address"
        },
        {
          "internalType": "contract LPToken",
          "name": "_lpToken",
          "type": "address"
        }
      ],
      "stateMutability": "nonpayable",
      "type": "constructor"
    },
    {
      "anonymous": false,
      "inputs": [
        {
          "indexed": true,
          "internalType": "address",
          "name": "user",
          "type": "address"
        },
        {
          "indexed": false,
          "internalType": "uint256",
          "name": "amount",
          "type": "uint256"
        }
      ],
      "name": "Deposit",
      "type": "event"
    },
    {
      "anonymous": false,
      "inputs": [
        {
          "indexed": true,
          "internalType": "address",
          "name": "user",
          "type": "address"
        },
        {
          "indexed": false,
          "internalType": "uint256",
          "name": "amount",
          "type": "uint256"
        }
      ],
      "name": "RewardsClaimed",
      "type": "event"
    },
    {
      "anonymous": false,
      "inputs": [
        {
          "indexed": false,
          "internalType": "uint256",
          "name": "totalDistributed",
          "type": "uint256"
        },
        {
          "indexed": false,
          "internalType": "uint256",
          "name": "blockNumber",
          "type": "uint256"
        }
      ],
      "name": "RewardsDistributed",
      "type": "event"
    },
    {
      "anonymous": false,
      "inputs": [
        {
          "indexed": true,
          "internalType": "address",
          "name": "user",
          "type": "address"
        },
        {
          "indexed": false,
          "internalType": "uint256",
          "name": "amount",
          "type": "uint256"
        }
      ],
      "name": "Withdraw",
      "type": "event"
    },
    {
      "inputs": [],
      "name": "REWARD_PER_BLOCK",
      "outputs": [
        {
          "internalType": "uint256",
          "name": "",
          "type": "uint256"
        }
      ],
      "stateMutability": "view",
      "type": "function"
    },
    {
      "inputs": [
        {
          "internalType": "address",
          "name": "",
          "type": "address"
        }
      ],
      "name": "checkpoints",
      "outputs": [
        {
          "internalType": "uint256",
          "name": "",
          "type": "uint256"
        }
      ],
      "stateMutability": "view",
      "type": "function"
    },
    {
      "inputs": [],
      "name": "claimRewards",
      "outputs": [],
      "stateMutability": "nonpayable",
      "type": "function"
    },
    {
      "inputs": [],
      "name": "dappToken",
      "outputs": [
        {
          "internalType": "contract DappToken",
          "name": "",
          "type": "address"
        }
      ],
      "stateMutability": "view",
      "type": "function"
    },
    {
      "inputs": [
        {
          "internalType": "uint256",
          "name": "_amount",
          "type": "uint256"
        }
      ],
      "name": "deposit",
      "outputs": [],
      "stateMutability": "nonpayable",
      "type": "function"
    },
    {
      "inputs": [],
      "name": "distributeRewardsAll",
      "outputs": [],
      "stateMutability": "nonpayable",
      "type": "function"
    },
    {
      "inputs": [
        {
          "internalType": "address",
          "name": "",
          "type": "address"
        }
      ],
      "name": "hasStaked",
      "outputs": [
        {
          "internalType": "bool",
          "name": "",
          "type": "bool"
        }
      ],
      "stateMutability": "view",
      "type": "function"
    },
    {
      "inputs": [
        {
          "internalType": "address",
          "name": "",
          "type": "address"
        }
      ],
      "name": "isStaking",
      "outputs": [
        {
          "internalType": "bool",
          "name": "",
          "type": "bool"
        }
      ],
      "stateMutability": "view",
      "type": "function"
    },
    {
      "inputs": [],
      "name": "lpToken",
      "outputs": [
        {
          "internalType": "contract LPToken",
          "name": "",
          "type": "address"
        }
      ],
      "stateMutability": "view",
      "type": "function"
    },
    {
      "inputs": [],
      "name": "name",
      "outputs": [
        {
          "internalType": "string",
          "name": "",
          "type": "string"
        }
      ],
      "stateMutability": "view",
      "type": "function"
    },
    {
      "inputs": [],
      "name": "owner",
      "outputs": [
        {
          "internalType": "address",
          "name": "",
          "type": "address"
        }
      ],
      "stateMutability": "view",
      "type": "function"
    },
    {
      "inputs": [
        {
          "internalType": "address",
          "name": "",
          "type": "address"
        }
      ],
      "name": "pendingRewards",
      "outputs": [
        {
          "internalType": "uint256",
          "name": "",
          "type": "uint256"
        }
      ],
      "stateMutability": "view",
      "type": "function"
    },
    {
      "inputs": [
        {
          "internalType": "uint256",
          "name": "",
          "type": "uint256"
        }
      ],
      "name": "stakers",
      "outputs": [
        {
          "internalType": "address",
          "name": "",
          "type": "address"
        }
      ],
      "stateMutability": "view",
      "type": "function"
    },
    {
      "inputs": [
        {
          "internalType": "address",
          "name": "",
          "type": "address"
        }
      ],
      "name": "stakingBalance",
      "outputs": [
        {
          "internalType": "uint256",
          "name": "",
          "type": "uint256"
        }
      ],
      "stateMutability": "view",
      "type": "function"
    },
    {
      "inputs": [],
      "name": "totalStakingBalance",
      "outputs": [
        {
          "internalType": "uint256",
          "name": "",
          "type": "uint256"
        }
      ],
      "stateMutability": "view",
      "type": "function"
    },
    {
      "inputs": [],
      "name": "withdraw",
      "outputs": [],
      "stateMutability": "nonpayable",
      "type": "function"
    }
  ],
  "bytecode": "0x60806040526040518060400160405280601781526020017f50726f706f7274696f6e616c20546f6b656e204661726d000000000000000000815250600090816100489190610391565b5034801561005557600080fd5b5060405161205c38038061205c83398181016040528101906100779190610516565b81600260006101000a81548173ffffffffffffffffffffffffffffffffffffffff021916908373ffffffffffffffffffffffffffffffffffffffff16021790555080600360006101000a81548173ffffffffffffffffffffffffffffffffffffffff021916908373ffffffffffffffffffffffffffffffffffffffff16021790555033600160006101000a81548173ffffffffffffffffffffffffffffffffffffffff021916908373ffffffffffffffffffffffffffffffffffffffff1602179055505050610556565b600081519050919050565b7f4e487b7100000000000000000000000000000000000000000000000000000000600052604160045260246000fd5b7f4e487b7100000000000000000000000000000000000000000000000000000000600052602260045260246000fd5b600060028204905060018216806101c257607f821691505b6020821081036101d5576101d461017b565b5b50919050565b60008190508160005260206000209050919050565b60006020601f8301049050919050565b600082821b905092915050565b60006008830261023d7fffffffffffffffffffffffffffffffffffffffffffffffffffffffffffffffff82610200565b6102478683610200565b95508019841693508086168417925050509392505050565b6000819050919050565b6000819050919050565b600061028e6102896102848461025f565b610269565b61025f565b9050919050565b6000819050919050565b6102a883610273565b6102bc6102b482610295565b84845461020d565b825550505050565b600090565b6102d16102c4565b6102dc81848461029f565b505050565b5b81811015610300576102f56000826102c9565b6001810190506102e2565b5050565b601f82111561034557610316816101db565b61031f846101f0565b8101602085101561032e578190505b61034261033a856101f0565b8301826102e1565b50505b505050565b600082821c905092915050565b60006103686000198460080261034a565b1980831691505092915050565b60006103818383610357565b9150826002028217905092915050565b61039a82610141565b67ffffffffffffffff8111156103b3576103b261014c565b5b6103bd82546101aa565b6103c8828285610304565b600060209050601f8311600181146103fb57600084156103e9578287015190505b6103f38582610375565b86555061045b565b601f198416610409866101db565b60005b828110156104315784890151825560018201915060208501945060208101905061040c565b8683101561044e578489015161044a601f891682610357565b8355505b6001600288020188555050505b505050505050565b600080fd5b600073ffffffffffffffffffffffffffffffffffffffff82169050919050565b600061049382610468565b9050919050565b60006104a582610488565b9050919050565b6104b58161049a565b81146104c057600080fd5b50565b6000815190506104d2816104ac565b92915050565b60006104e382610488565b9050919050565b6104f3816104d8565b81146104fe57600080fd5b50565b600081519050610510816104ea565b92915050565b6000806040838503121561052d5761052c610463565b5b600061053b858286016104c3565b925050602061054c85828601610501565b9150509250929050565b611af7806105656000396000f3fe608060405234801561001057600080fd5b50600436106101005760003560e01c80638da5cb5b11610097578063db03e22711610066578063db03e2271461028b578063dbb51d6e14610295578063e766c835146102c5578063fd5e6dd1146102e357610100565b80638da5cb5b14610203578063975532dc14610221578063b6b55f251461023f578063c93c8f341461025b57610100565b806345bc78ab116100d357806345bc78ab146101675780635eb186f8146101975780635fcbd285146101b55780636f49712b146101d357610100565b806306fdde031461010557806331d7a26214610123578063372500ab146101535780633ccfd60b1461015d575b600080fd5b61010d610313565b60405161011a9190611236565b60405180910390f35b61013d600480360381019061013891906112bb565b6103a1565b60405161014a9190611301565b60405180910390f35b61015b6103b9565b005b610165610565565b005b610181600480360381019061017c91906112bb565b610829565b60405161018e9190611301565b60405180910390f35b61019f610841565b6040516101ac919061137b565b60405180910390f35b6101bd610867565b6040516101ca91906113b7565b60405180910390f35b6101ed60048036038101906101e891906112bb565b61088d565b6040516101fa91906113ed565b60405180910390f35b61020b6108ad565b6040516102189190611417565b60405180910390f35b6102296108d3565b6040516102369190611301565b60405180910390f35b6102596004803603810190610254919061145e565b6108df565b005b610275600480360381019061027091906112bb565b610c7f565b60405161028291906113ed565b60405180910390f35b610293610c9f565b005b6102af60048036038101906102aa91906112bb565b610ec7565b6040516102bc9190611301565b60405180910390f35b6102cd610edf565b6040516102da9190611301565b60405180910390f35b6102fd60048036038101906102f8919061145e565b610ee5565b60405161030a9190611417565b60405180910390f35b60008054610320906114ba565b80601f016020809104026020016040519081016040528092919081815260200182805461034c906114ba565b80156103995780601f1061036e57610100808354040283529160200191610399565b820191906000526020600020905b81548152906001019060200180831161037c57829003601f168201915b505050505081565b60086020528060005260406000206000915090505481565b6000600860003373ffffffffffffffffffffffffffffffffffffffff1673ffffffffffffffffffffffffffffffffffffffff16815260200190815260200160002054905060008111610440576040517f08c379a000000000000000000000000000000000000000000000000000000000815260040161043790611537565b60405180910390fd5b6000600860003373ffffffffffffffffffffffffffffffffffffffff1673ffffffffffffffffffffffffffffffffffffffff16815260200190815260200160002081905550600260009054906101000a900473ffffffffffffffffffffffffffffffffffffffff1673ffffffffffffffffffffffffffffffffffffffff166340c10f1933836040518363ffffffff1660e01b81526004016104e2929190611557565b600060405180830381600087803b1580156104fc57600080fd5b505af1158015610510573d6000803e3d6000fd5b505050503373ffffffffffffffffffffffffffffffffffffffff167ffc30cddea38e2bf4d6ea7d3f9ed3b6ad7f176419f4963bd81318067a4aee73fe8260405161055a9190611301565b60405180910390a250565b600a60003373ffffffffffffffffffffffffffffffffffffffff1673ffffffffffffffffffffffffffffffffffffffff16815260200190815260200160002060009054906101000a900460ff166105f1576040517f08c379a00000000000000000000000000000000000000000000000000000000081526004016105e8906115cc565b60405180910390fd5b6000600660003373ffffffffffffffffffffffffffffffffffffffff1673ffffffffffffffffffffffffffffffffffffffff16815260200190815260200160002054905060008111610678576040517f08c379a000000000000000000000000000000000000000000000000000000000815260040161066f9061165e565b60405180910390fd5b61068133610f24565b6000600660003373ffffffffffffffffffffffffffffffffffffffff1673ffffffffffffffffffffffffffffffffffffffff1681526020019081526020016000208190555080600460008282546106d891906116ad565b925050819055506000600a60003373ffffffffffffffffffffffffffffffffffffffff1673ffffffffffffffffffffffffffffffffffffffff16815260200190815260200160002060006101000a81548160ff021916908315150217905550600360009054906101000a900473ffffffffffffffffffffffffffffffffffffffff1673ffffffffffffffffffffffffffffffffffffffff1663a9059cbb33836040518363ffffffff1660e01b8152600401610794929190611557565b6020604051808303816000875af11580156107b3573d6000803e3d6000fd5b505050506040513d601f19601f820116820180604052508101906107d7919061170d565b503373ffffffffffffffffffffffffffffffffffffffff167f884edad9ce6fa2440d8a54cc123490eb96d2768479d49ff9c7366125a94243648260405161081e9190611301565b60405180910390a250565b60066020528060005260406000206000915090505481565b600260009054906101000a900473ffffffffffffffffffffffffffffffffffffffff1681565b600360009054906101000a900473ffffffffffffffffffffffffffffffffffffffff1681565b600a6020528060005260406000206000915054906101000a900460ff1681565b600160009054906101000a900473ffffffffffffffffffffffffffffffffffffffff1681565b670de0b6b3a764000081565b60008111610922576040517f08c379a000000000000000000000000000000000000000000000000000000000815260040161091990611786565b60405180910390fd5b600360009054906101000a900473ffffffffffffffffffffffffffffffffffffffff1673ffffffffffffffffffffffffffffffffffffffff166323b872dd3330846040518463ffffffff1660e01b8152600401610981939291906117a6565b6020604051808303816000875af11580156109a0573d6000803e3d6000fd5b505050506040513d601f19601f820116820180604052508101906109c4919061170d565b5080600660003373ffffffffffffffffffffffffffffffffffffffff1673ffffffffffffffffffffffffffffffffffffffff1681526020019081526020016000206000828254610a1491906117dd565b925050819055508060046000828254610a2d91906117dd565b925050819055506000600760003373ffffffffffffffffffffffffffffffffffffffff1673ffffffffffffffffffffffffffffffffffffffff1681526020019081526020016000205403610ac05743600760003373ffffffffffffffffffffffffffffffffffffffff1673ffffffffffffffffffffffffffffffffffffffff168152602001908152602001600020819055505b600960003373ffffffffffffffffffffffffffffffffffffffff1673ffffffffffffffffffffffffffffffffffffffff16815260200190815260200160002060009054906101000a900460ff16610bcd576005339080600181540180825580915050600190039060005260206000200160009091909190916101000a81548173ffffffffffffffffffffffffffffffffffffffff021916908373ffffffffffffffffffffffffffffffffffffffff1602179055506001600960003373ffffffffffffffffffffffffffffffffffffffff1673ffffffffffffffffffffffffffffffffffffffff16815260200190815260200160002060006101000a81548160ff0219169083151502179055505b6001600a60003373ffffffffffffffffffffffffffffffffffffffff1673ffffffffffffffffffffffffffffffffffffffff16815260200190815260200160002060006101000a81548160ff021916908315150217905550610c2e33610f24565b3373ffffffffffffffffffffffffffffffffffffffff167fe1fffcc4923d04b559f4d29a8bfc6cda04eb5b0d3c460751c2402c5c5cc9109c82604051610c749190611301565b60405180910390a250565b60096020528060005260406000206000915054906101000a900460ff1681565b600160009054906101000a900473ffffffffffffffffffffffffffffffffffffffff1673ffffffffffffffffffffffffffffffffffffffff163373ffffffffffffffffffffffffffffffffffffffff1614610d2f576040517f08c379a0000000000000000000000000000000000000000000000000000000008152600401610d2690611883565b60405180910390fd5b6000805b600580549050811015610e8a57600060058281548110610d5657610d556118a3565b5b9060005260206000200160009054906101000a900473ffffffffffffffffffffffffffffffffffffffff169050600a60008273ffffffffffffffffffffffffffffffffffffffff1673ffffffffffffffffffffffffffffffffffffffff16815260200190815260200160002060009054906101000a900460ff1615610e7c576000600860008373ffffffffffffffffffffffffffffffffffffffff1673ffffffffffffffffffffffffffffffffffffffff168152602001908152602001600020549050610e2282610f24565b80600860008473ffffffffffffffffffffffffffffffffffffffff1673ffffffffffffffffffffffffffffffffffffffff16815260200190815260200160002054610e6d91906116ad565b84610e7891906117dd565b9350505b508080600101915050610d33565b507f29e98ba00d07f171959c4ddcd2f3020debc7c52cf537a034d7e664340d098c6c8143604051610ebc9291906118d2565b60405180910390a150565b60076020528060005260406000206000915090505481565b60045481565b60058181548110610ef557600080fd5b906000526020600020016000915054906101000a900473ffffffffffffffffffffffffffffffffffffffff1681565b6000600760008373ffffffffffffffffffffffffffffffffffffffff1673ffffffffffffffffffffffffffffffffffffffff1681526020019081526020016000205490506000811480610f7657508043145b15610fc55743600760008473ffffffffffffffffffffffffffffffffffffffff1673ffffffffffffffffffffffffffffffffffffffff16815260200190815260200160002081905550506111a3565b804311611007576040517f08c379a0000000000000000000000000000000000000000000000000000000008152600401610ffe9061196d565b60405180910390fd5b60006004541161104c576040517f08c379a0000000000000000000000000000000000000000000000000000000008152600401611043906119ff565b60405180910390fd5b6000814361105a91906116ad565b905060006004546ec097ce7bc90715b34b9f1000000000600660008773ffffffffffffffffffffffffffffffffffffffff1673ffffffffffffffffffffffffffffffffffffffff168152602001908152602001600020546110bb9190611a1f565b6110c59190611a90565b905060006ec097ce7bc90715b34b9f10000000008284670de0b6b3a76400006110ee9190611a1f565b6110f89190611a1f565b6111029190611a90565b905080600860008773ffffffffffffffffffffffffffffffffffffffff1673ffffffffffffffffffffffffffffffffffffffff168152602001908152602001600020600082825461115391906117dd565b9250508190555043600760008773ffffffffffffffffffffffffffffffffffffffff1673ffffffffffffffffffffffffffffffffffffffff16815260200190815260200160002081905550505050505b50565b600081519050919050565b600082825260208201905092915050565b60005b838110156111e05780820151818401526020810190506111c5565b60008484015250505050565b6000601f19601f8301169050919050565b6000611208826111a6565b61121281856111b1565b93506112228185602086016111c2565b61122b816111ec565b840191505092915050565b6000602082019050818103600083015261125081846111fd565b905092915050565b600080fd5b600073ffffffffffffffffffffffffffffffffffffffff82169050919050565b60006112888261125d565b9050919050565b6112988161127d565b81146112a357600080fd5b50565b6000813590506112b58161128f565b92915050565b6000602082840312156112d1576112d0611258565b5b60006112df848285016112a6565b91505092915050565b6000819050919050565b6112fb816112e8565b82525050565b600060208201905061131660008301846112f2565b92915050565b6000819050919050565b600061134161133c6113378461125d565b61131c565b61125d565b9050919050565b600061135382611326565b9050919050565b600061136582611348565b9050919050565b6113758161135a565b82525050565b6000602082019050611390600083018461136c565b92915050565b60006113a182611348565b9050919050565b6113b181611396565b82525050565b60006020820190506113cc60008301846113a8565b92915050565b60008115159050919050565b6113e7816113d2565b82525050565b600060208201905061140260008301846113de565b92915050565b6114118161127d565b82525050565b600060208201905061142c6000830184611408565b92915050565b61143b816112e8565b811461144657600080fd5b50565b60008135905061145881611432565b92915050565b60006020828403121561147457611473611258565b5b600061148284828501611449565b91505092915050565b7f4e487b7100000000000000000000000000000000000000000000000000000000600052602260045260246000fd5b600060028204905060018216806114d257607f821691505b6020821081036114e5576114e461148b565b5b50919050565b7f4e6f207265776172647320746f20636c61696d00000000000000000000000000600082015250565b60006115216013836111b1565b915061152c826114eb565b602082019050919050565b6000602082019050818103600083015261155081611514565b9050919050565b600060408201905061156c6000830185611408565b61157960208301846112f2565b9392505050565b7f55736572206973206e6f74207374616b696e6700000000000000000000000000600082015250565b60006115b66013836111b1565b91506115c182611580565b602082019050919050565b600060208201905081810360008301526115e5816115a9565b9050919050565b7f5374616b696e672062616c616e6365206d75737420626520677265617465722060008201527f7468616e20300000000000000000000000000000000000000000000000000000602082015250565b60006116486026836111b1565b9150611653826115ec565b604082019050919050565b600060208201905081810360008301526116778161163b565b9050919050565b7f4e487b7100000000000000000000000000000000000000000000000000000000600052601160045260246000fd5b60006116b8826112e8565b91506116c3836112e8565b92508282039050818111156116db576116da61167e565b5b92915050565b6116ea816113d2565b81146116f557600080fd5b50565b600081519050611707816116e1565b92915050565b60006020828403121561172357611722611258565b5b6000611731848285016116f8565b91505092915050565b7f416d6f756e74206d7573742062652067726561746572207468616e2030000000600082015250565b6000611770601d836111b1565b915061177b8261173a565b602082019050919050565b6000602082019050818103600083015261179f81611763565b9050919050565b60006060820190506117bb6000830186611408565b6117c86020830185611408565b6117d560408301846112f2565b949350505050565b60006117e8826112e8565b91506117f3836112e8565b925082820190508082111561180b5761180a61167e565b5b92915050565b7f4f6e6c7920746865206f776e65722063616e206469737472696275746520726560008201527f7761726473000000000000000000000000000000000000000000000000000000602082015250565b600061186d6025836111b1565b915061187882611811565b604082019050919050565b6000602082019050818103600083015261189c81611860565b9050919050565b7f4e487b7100000000000000000000000000000000000000000000000000000000600052603260045260246000fd5b60006040820190506118e760008301856112f2565b6118f460208301846112f2565b9392505050565b7f5265776172647320616c726561647920646973747269627574656420666f722060008201527f7468697320626c6f636b00000000000000000000000000000000000000000000602082015250565b6000611957602a836111b1565b9150611962826118fb565b604082019050919050565b600060208201905081810360008301526119868161194a565b9050919050565b7f546f74616c207374616b696e672062616c616e6365206d75737420626520677260008201527f6561746572207468616e20300000000000000000000000000000000000000000602082015250565b60006119e9602c836111b1565b91506119f48261198d565b604082019050919050565b60006020820190508181036000830152611a18816119dc565b9050919050565b6000611a2a826112e8565b9150611a35836112e8565b9250828202611a43816112e8565b91508282048414831517611a5a57611a5961167e565b5b5092915050565b7f4e487b7100000000000000000000000000000000000000000000000000000000600052601260045260246000fd5b6000611a9b826112e8565b9150611aa6836112e8565b925082611ab657611ab5611a61565b5b82820490509291505056fea2646970667358221220074d8c4e3b5cb6da8a9220840dbecb421162c037d3592974fd95a16ad43eab3264736f6c634300081b0033",
  "linkReferences": {},
  "deployedLinkReferences": {}
}